:020000040800F2
:10000000380C002005010008ED0A0008090A000864
:10001000E90A0008ED070008471800080000000082
:100020000000000000000000000000000D110008AA
:10003000F107000800000000F70F00083513000862
:100040001F0100081F0100081F0100081F01000810
:100050001F0100081F0100081F0100081F01000800
:100060001F0100081F0100081F0100081F010008F0
:100070001F0100081F0100081F0100081F010008E0
:100080001F0100081F0100081F0100081F010008D0
:100090001F0100081F0100081F0100081F010008C0
:1000A0001F0100081F0100081F0100081F010008B0
:1000B0001F010008991300081F0100081F01000814
:1000C0001F0100081F0100081F0100081F01000890
:1000D0001F0100081F01000811150008391500084C
:1000E0001F0100081F0100081F010008DFF810D0E1
:1000F00000F0DCFA00480047C93E0008AFF300807A
:10010000380C00200648804706480047FEE7FEE717
:10011000FEE7FEE7FEE7FEE7FEE7FEE7FEE7FEE7B7
:1001200039130008ED00000840EA01039B0703D0E3
:1001300009E008C9121F08C0042AFAD203E011F826
:10014000013B00F8013B521EF9D27047D2B201E0E8
:1001500000F8012B491EFBD270470022F6E710B5CC
:1001600013460A4604461946FFF7F0FF204610BD25
:10017000421C10F8011B0029FBD1801A704730B4D3
:1001800080EA010202F0004530F0004221F0004018
:1001900013D090B1C30DD40DC2F31601C0F31600F5
:1001A000E41A41F4000140F400027D34914201D38D
:1001B000641C00E04900002C02DA30BC00207047CB
:1001C0004FF400000023914201D3891A03434008F1
:1001D0004FEA4101F7D151B1914202D14FF00041B4
:1001E00005E002D24FF0010101E06FF0010103EBE5
:1001F000C450284430BC00F069B8C10F80EAE070F8
:100200000844CA079623002100F069B800F00042B4
:1002100020F00040C10DC0F3160040F400007F291B
:1002200001DA00207047962903DCC1F19601C8402D
:1002300001E096398840002AF4D04042704730B53A
:100240000B46014600202022012409E021FA02F594
:100250009D4205D303FA02F5491B04FA02F528442E
:10026000151EA2F10102F1DC30BD2DE9F05F05465B
:10027000002092469B4688460646814640241BE065
:10028000284641464746224600F031FA53465A4630
:10029000C01A914110D311461846224600F018FAB0
:1002A0002D1A67EB01084F4622460120002100F07D
:1002B0000FFA17EB00094E41201EA4F10104DFDC08
:1002C000484631462A464346BDE8F09F0029A8BF6C
:1002D0007047401C490008BF20F00100704710B46F
:1002E000B0FA80FC00FA0CF050EA010404BF10BC24
:1002F000704749B1CCF1200421FA04F411FA0CF151
:1003000018BF012121430843A3EB0C01CB1D4FEA89
:1003100000614FEA102042BF002010BC704700EB84
:10032000C35010440029A4BF10BC7047401C4900B2
:1003300008BF20F0010010BC70472DE9FE4F804639
:1003400081EA0300C00F0C46009021F0004123F029
:100350000045B8EB0200A94105D24046214690462F
:100360001C460B46024623F00040104347D0270DA1
:10037000C7F30A00C3F30A510290401A01904028C3
:100380006BDAC3F3130040F4801B0098924620B14F
:100390000023D2EB030A63EB0B0B01985946C0F123
:1003A0004002504600F094F906460D465046594624
:1003B000019A00F0ACF910EB08006141002487EAD3
:1003C000115284EAE7731A4340D0009A62B3019A4B
:1003D000012A4FEA075215DC001B61EB02014FF0C6
:1003E000004202EA0752CDE90042001C41F58011AB
:1003F00032462B4600F0ACF903B0BDE8F08F404622
:100400002146F9E7001B61EB0201001C41F5801356
:1004100000185B412018A2F5001747EB030140EAE2
:10042000D570B6196D4111E06D084FEA360645EA00
:10043000C0754FEA0752001B61EB0201001C41F539
:10044000801149084FEA30000019514132462B46CD
:1004500003B0BDE8F04F00F06CB9009801224000F5
:100460000023D0EB020263EBE073009821464FEAD1
:10047000E074B8EB000061EB0401E9E783F00043AE
:100480005BE781F0004158E72DE9FE4F81EA030464
:1004900004F0004421F0004100944FF0000B23F0E1
:1004A000004350EA01045ED052EA03045BD0C3F378
:1004B0000A54C1F30A552C44A4F2F3340194A0FB6E
:1004C0000254C1F3130141F48011C3F3130343F445
:1004D000801301FB024400FB034E840A970A44EA9E
:1004E000815447EA8357A4FB076802958D0A05FBF0
:1004F00007854FEA932C04FB0C542705029D4FEA15
:10050000065847EA1637B5EB08056EEB070C870E61
:10051000920E47EA811742EA8312A7FB0201B6EB6B
:100520000B0164EB00042B0D43EA0C335E1844EB23
:100530001C50DA465146E7FB0201C5F313044FEAAB
:100540000B3343EA14534FEA0432019C43EA060397
:10055000A4F10C040294009CCDE900B400F0F8F87A
:1005600003B0BDE8F08F00200146F9E72DE9F04D1A
:1005700081EA030404F0004B21F0004514464FF0DB
:10058000000A23F0004150EA050220D054EA01029B
:100590001DD0C5F30A570246C5F31303C1F3130078
:1005A000C1F30A5640F4801543F48013A7EB060804
:1005B000101BD64608F2FD3873EB050002D308F194
:1005C000010801E092185B41B8F1000F03DA002046
:1005D0000146BDE8F08D00204FF4801106468446A8
:1005E0000EE0171B73EB050705D3121B63EB050326
:1005F00006434CEA010C49084FEA300092185B416F
:1006000050EA0107EDD152EA030012D082EA040059
:1006100083EA0501084305D0101BAB4106D2012235
:10062000002306E000224FF0004302E06FF00102D9
:1006300053101AEB06004CEB085110EB0A0041EB8B
:100640000B01BDE8F04D00F074B8C1F30A52C1F3DC
:10065000130140F2FF3341F480119A4202DA002084
:100660000146704740F233439A42A2F2334202DC21
:10067000524200F03CB800F02BB8000030B5041E28
:1006800071F1000404DB4FF00044404264EB0101CF
:10069000141E73F1000405DB1C464FF00043524268
:1006A00063EB0403994208BF904230BD064C074DEE
:1006B00006E0E06840F0010394E807009847103432
:1006C000AC42F6D3FFF716FDE061000800620008B7
:1006D000202A04DB203A00FA02F100207047914002
:1006E000C2F1200320FA03F3194390407047202AF7
:1006F00004DB203A21FA02F00021704721FA02F3CC
:10070000D040C2F120029140084319467047202A88
:1007100006DBCB17203A41FA02F043EAE07306E029
:1007200041FA02F3D040C2F1200291400843194639
:10073000704710B5141E73F1000408DA401C41F133
:10074000000192185B411A4301D120F0010010BD55
:100750002DE9F04D92469B4611B1B1FA81F202E0CB
:10076000B0FA80F220329046FFF7B2FF04460F46FF
:1007700040EA0A0041EA0B0153465A46084313D0A7
:10078000114653EA010019D0C8F140025046FFF764
:10079000AEFF05460E46504659464246FFF798FFC3
:1007A000084305D0012004E020463946BDE8F08D1D
:1007B0000020054346EAE0762C4337430A98630558
:1007C000E40AA0EB08000022FD0A44EA47540A307C
:1007D00002D500200146E9E7010510196941DDE96C
:1007E000084500196941BDE8F04DA2E700BFFEE7EA
:1007F00070472DE9F0410246002500260020002325
:100800000024002791F803C00CF00F0591F803C0F5
:100810000CF0100CBCF1000F03D091F802C04CEAB0
:10082000050591F800C0BCF1000F31D0146800201C
:100830002BE04FF0010C0CFA00F3B1F800C00CEA09
:1008400003069E4220D183004FF00F0C0CFA03F7F1
:10085000BC4305FA03FC4CEA040491F803C0BCF164
:10086000280F06D14FF0010C0CFA00FCC2F814C09E
:100870000AE091F803C0BCF1480F05D14FF0010C1C
:100880000CFA00FCC2F810C0401C0828D1D3146038
:10089000B1F800C0BCF1FF0F34DD546800202EE039
:1008A00000F1080C4FF0010808FA0CF3B1F800C091
:1008B0000CEA03069E4221D183004FF00F0C0CFA84
:1008C00003F7BC4305FA03FC4CEA040491F803C0A7
:1008D000BCF1280F05D100F1080C08FA0CF8C2F899
:1008E000148091F803C0BCF1480F07D100F1080C47
:1008F0004FF0010808FA0CF8C2F81080401C0828D4
:10090000CED35460BDE8F08141617047016170470A
:1009100010B500F03FF80749086000F03BF80549C2
:10092000086000F037F80349086000F033F8014927
:10093000086010BD5000002070B500F02BF8114980
:1009400008600846006810490968884216D80D48B2
:1009500000680E4908600C4800680968401A0B4995
:10096000086008460068FFF748FC05460849FFF79D
:1009700006FC0446FFF74AFC044908600348006887
:1009800070BD00004C00002050000020000000203E
:100990000000D24370B501201949086001F02EFC17
:1009A00000201849C1F88401002400BF14480068E1
:1009B0000028FBD1002513E0012011498431086093
:1009C000640001F01BFC00200E49C1F884010C48B2
:1009D000006800B1641C012001F010FC681CC5B265
:1009E000182DE9DB012006498431086084F40004F5
:1009F00001F004FC00200349C1F88401204670BDC9
:100A0000008121420080214200BFFEE710B5202175
:100A10000A48FFF77BFF10210848FFF777FF00F037
:100A200037F820210548FFF76FFF00F031F810215B
:100A30000248FFF769FF00F02BF810BD00080140E5
:100A400010B520210648FFF75FFF10210448FFF78B
:100A50005DFF00F01DF820210148FFF757FF10BD92
:100A60000008014010B520210848FFF74FFF00F0B3
:100A70000FF810210548FFF749FF00F009F8102191
:100A80000248FFF741FF00F003F810BD00080140E5
:100A9000032000BF011EA0F10102D0B2FAD17047BD
:100AA00008B50121082000F0B7FA0220ADF80000D7
:100AB00010208DF8030003208DF8020069460948D4
:100AC000FFF797FE0120ADF8000048208DF80300E5
:100AD00069460448FFF78DFE02210248FFF716FF22
:100AE00008BD0000000C014000BFFEE77047000099
:100AF00070B5002100230F22C47804B3154C24687C
:100B000004F4E064C4F5E064210AC1F10403CA40BE
:100B1000447804FA03F184781440214309010E4C0F
:100B20000678A155047804F01F050124AC4005782F
:100B30006D11AD0005F1E025C5F8004109E004782C
:100B400004F01F050124AC40044D0678761145F8E9
:100B5000264070BD0CED00E000E400E080E100E024
:100B600002490143024A1160704700000000FA0583
:100B70000CED00E070B500240CE0002506E000203C
:100B8000074901EBC5010855681CC5B2802DF6DB8D
:100B9000601CC4B2082CF0DB00F0D4F870BD00007B
:100BA00068020020F0B514460B46CF1701EB5777CB
:100BB000C7F3C702CF1701EB5777FF10A1EBC707A9
:100BC000FEB20123B340DDB24CB1134B03EBC003C3
:100BD0009B5C2B43104F07EBC007BB541AE00E4B36
:100BE00003EBC0039B5CDB430B4F07EBC007BB541D
:100BF000094B03EBC0039B5C2B43074F07EBC0077C
:100C0000BB54054B03EBC0039B5CDB43024F07EB7C
:100C1000C007BB54F0BD00006802002008B50121E8
:100C2000042000F0F9F93020ADF8000014208DF810
:100C3000030003208DF8020069463B48FFF7D9FD09
:100C400030213948FFF762FE4FF4FA7001F0B0FA34
:100C50000021AE2000F0B3F90021084600F0AFF902
:100C60000021102000F0ABF90021402000F0A7F98E
:100C70000021812000F0A3F90021CF2000F09FF98E
:100C80000021A12000F09BF90021C82000F097F975
:100C90000021A62000F093F90021A82000F08FF990
:100CA00000213F2000F08BF90021D32000F087F9CC
:100CB0000021084600F083F90021D52000F07FF9DB
:100CC0000021802000F07BF90021D92000F077F985
:100CD0000021F12000F073F90021DA2000F06FF913
:100CE0000021122000F06BF90021DB2000F067F9F1
:100CF0000021302000F063F90021202000F05FF98E
:100D00000021022000F05BF900218D2000F057F94E
:100D10000021142000F053F9FFF72CFF0021AF2031
:100D200000F04DF908BD00000008014010B5024672
:100D3000012000E050430B1EA1F10104E1B2F9D102
:100D400010BD000070B500242BE004F1B001C8B262
:100D5000002100F034F90021084600F030F90021AC
:100D6000102000F02CF9FFF751FE782000F034FA43
:100D7000FFF778FE402000F02FFAFFF773FE002502
:100D800009E0094901EBC501085D00F025FAFFF70C
:100D900069FE681CC5B2802DF3DBFFF751FE601CB5
:100DA000C4B2082CD1DB70BD680200202DE9FE4FD3
:100DB0000746884692461C460197CDF80080082CCD
:100DC00002D14FF006091FE02046E31704EB5373EE
:100DD000DB1021464FEAE47C04EB5C7C4FEAEC0C30
:100DE000A4EBCC0CBCF1000F02D04FF0010C01E0E1
:100DF0004FF0000C6344224604EBD27C4FEA6C0CAB
:100E000003FB0CF303F0FF09AAF12000C6B2002592
:100E10005EE0082C07D106EB46002F4901EB4000AD
:100E200010F805B01DE00C2C07D106EB46002B494D
:100E300001EB800010F805B013E0102C05D1284814
:100E400000EB061010F805B00BE0182C07D106EBEC
:100E5000C600244901EB800010F805B001E0BDE8B0
:100E6000FE8F002002901CE00BF0010028B14146EB
:100E700038460C9AFFF796FE09E00C9808B9012055
:100E800000E00020024641463846FFF78BFE4FEA5D
:100E90006B0B08F1010000F0FF080298401CC0B283
:100EA000029002980828DFDB781CC7B2082C0BD010
:100EB00004EBD4714A100199791A8A4204D1019F36
:100EC00000980830C0B20090DDF80080681CC5B200
:100ED0004D459EDB00BFC2E7B0430008D84500087F
:100EE0004C4A00083C5000082DE9FF4F82B00646EE
:100EF00091461F46DDE90F4A4FF0000B082C01D147
:100F00004FF0020B002530E0781B401EC1B20A20D2
:100F1000FFF70CFFB9FBF0F00A21B0FBF1F201FB87
:100F20001208B8F1000F0ED104EBD4710BEB610184
:100F300001FB0561C8B223463022CDE900A4039924
:100F4000FFF734FF0FE004EBD4710BEB610101FB01
:100F50000561C8B208F13001CAB22346CDE900A448
:100F60000399FFF723FF681CC5B2BD42CCDB06B076
:100F7000BDE8F08F2DE9F84106460F4614461D46A0
:100F8000DDF81C8013E0CDF8008022782B4639462E
:100F90003046FFF70BFF082D02D1B01DC6B205E0A9
:100FA000284605EBD07106EB6101CEB2641C2078B7
:100FB000202802DB20787E28E5DDBDE8F88170B5C9
:100FC00005460C46FFF722FD782000F005F9FFF7F3
:100FD00049FD1CB1402000F0FFF802E0002000F0C5
:100FE000FBF8FFF73FFD284600F0F6F8FFF73AFD63
:100FF000FFF726FD70BD704729B1064AD26902434A
:10100000044BDA6104E0034AD2698243014BDA619E
:10101000704700000010024029B1064A926902435D
:10102000044B9A6104E0034A92698243014B9A613E
:10103000704700000010024030B50021002200245B
:1010400000232D4D6D6805F00C0121B1042905D058
:10105000082923D105E0294D056022E0274D0560D0
:101060001FE0254D6D6805F47012234D6D6805F481
:101070008034022505EB92421CB9214D5543056091
:101080000BE01D4D6D6805F400351DB11C4D554339
:10109000056002E0194D5543056002E0174D0560FB
:1010A00000BF00BF144D6D6805F0F0010909154D32
:1010B0006B5C0568DD4045600F4D6D6805F4E061CF
:1010C000090A104D6B5C4568DD4085600A4D6D680E
:1010D00005F46051C90A0B4D6B5C4568DD40C56085
:1010E000054D6D6805F44041890B074D6B5CC56883
:1010F000B5FBF3F5056130BD0010024000127A0027
:1011000000093D0036000020460000207047000026
:101110000FB408B503A800900948009A029900F09E
:10112000B9FB00200090064A06A10B4800F09EFB88
:101130000949002000F012F801B05DF814FB00002E
:101140003C0100205B645D5B5631325D5B6D313587
:101150005D5B74355D257300A00100202DE9F04131
:101160008EB080460E46002700243046FFF700F878
:10117000C5B2FD208DF8040000208DF80500E81CA4
:10118000C0B28DF8060001208DF8070040EA081073
:10119000C0B28DF8080000BF03E001A8005D474021
:1011A000641C052CF9D3002402E0305D4740641C28
:1011B000AC42FAD32A4631460DF10900FEF7B4FFDE
:1011C000681D01A90F54A81DC1B201A800F050FA72
:1011D0000EB0BDE8F081000070B5044600251BE0AC
:1011E00004F0800020B120210D48FFF78FFB03E0C1
:1011F00020210B48FFF788FBFFF74AFC1021084825
:10120000FFF784FBFFF744FC10210548FFF77CFB48
:101210006006040E681CC5B2082DE1DB70BD00003D
:101220000008014010B500F001F810BD0CB5002019
:10123000019000903348006840F4803031490860E4
:1012400000BF3048006800F4003000900198401C56
:101250000190009818B90198B0F5A06FF1D1294814
:10126000006800F4003010B10120009001E000207F
:1012700000900098012843D12348006840F01000F6
:10128000214908600846006820F00300086008460D
:10129000006840F0020008601A4840681949486038
:1012A0000846406848600846406840F480604860EE
:1012B0000846406820F47C1048600846406840F4C6
:1012C000E81048600846006840F08070086000BF81
:1012D0000C48006800F000700028F9D00948406808
:1012E00020F00300074948600846406840F00200CB
:1012F000486000BF0348406800F00C000828F9D19E
:101300000CBD00000010024000200240042808D15B
:101310004FF0E021096941F004014FF0E022116132
:1013200007E04FF0E021096921F004014FF0E022CD
:10133000116170477047000010B51348006840F015
:1013400001001149086008464068104908400E49EC
:101350004860084600680E4908400B490860084686
:10136000006820F4802008600846406820F4FE00F1
:1013700048604FF41F008860FFF754FF4FF0006093
:101380000449086010BD0000001002400000FFF892
:10139000FFFFF6FE08ED00E010B50121054800F062
:1013A0004AF828B10121034800F036F802F0C2F9EA
:1013B00010BD0000000400407FB505460C46012129
:1013C0000220FFF719FEADF80850ADF804400020E8
:1013D000ADF80A00ADF8060001A90E4800F046F885
:1013E000012211460B4800F037F81D208DF800004F
:1013F00000208DF8010003208DF8020001208DF8F7
:1014000003006846FFF774FB0121024800F007F86B
:101410007FBD000000040040CA430282704721B132
:10142000028842F00102028004E002884FF6FE7357
:101430001A400280704730B5024600200023002485
:10144000158A05EA0103958905EA010413B10CB177
:10145000012000E0002030BD1AB183890B43838155
:1014600002E083898B438381704700000022028859
:101470001D4B98420ED01D4B98420BD0B0F1804FBF
:1014800008D01B4B984205D01A4B984202D01A4BF9
:10149000984204D14FF68F731A404B881A43174B6A
:1014A000984207D0164B984204D04FF6FF431A409B
:1014B000CB881A4302808B8883850B8803850A4B6F
:1014C00098420BD0094B984208D00E4B984205D059
:1014D0000D4B984202D00D4B984201D10B7A0386F6
:1014E0000123838270470000002C0140003401403A
:1014F0000004004000080040000C004000100040C4
:1015000000140040004001400044014000480140F8
:1015100008B540F22551074800F0D1F840B1054820
:1015200000F088F9C0B200900121684601F0BAFFCE
:1015300008BD00000044004010B540F2255110489D
:1015400000F0BDF8D8B10E4800F074F9C4B20D48EF
:10155000008800F4004090B90A480088C82808DADA
:10156000084801880088401C064A108006484454F8
:1015700005E00448008840F400400249088010BD9E
:1015800000480040340000207400002010B586B0F0
:10159000044601210820FFF73FFD01218804FFF7E1
:1015A0002BFD4FF48060ADF8140003208DF8160079
:1015B00018208DF8170005A92248FFF71AF94FF4F3
:1015C0000060ADF8140004208DF8170005A91D482F
:1015D000FFF70FF927208DF8000003208DF8010098
:1015E0008DF8020001208DF803006846FFF780FAAD
:1015F00001940020ADF80800ADF80A00ADF80C0029
:10160000ADF810000C20ADF80E0001A90E4800F056
:10161000A5F8012240F225510B4800F07AF801218B
:10162000094800F033F841F61F416320FFF7C4FE7C
:1016300000200649088000210548FFF7F0FE06B0AB
:1016400010BD0000000C01400048004034000020A4
:101650000004004000BF0549098801F0400100294D
:10166000F9D00249091D0880704700000048004079
:1016700030B502460B46002405E012F8010BFFF7D7
:10168000E9FF601CC4B29C42F7DB30BD21B1828906
:1016900042F40052828104E082894DF6FF731A40C1
:1016A0008281704702460020B1F5007F00D100BF63
:1016B00013880B400BB1012000E00020704770B58B
:1016C0000246002400230025002040F66A16B1429D
:1016D00000D100BFC1F3421501F01F03012606FA35
:1016E00003F3012D02D19689334006E0022D02D189
:1016F000168A334001E0968A33400C12012606FA1E
:1017000004F41688344013B10CB1012000E000202D
:1017100070BDF0B50346002400260025002040F6E9
:101720006A17B94200D100BF1846C1F3421401F054
:101730001F06012707FA06F5012C01D10C3004E041
:10174000022C01D1103000E014301AB107682F4389
:10175000076002E00768AF430760F0BD2DE9F0477E
:1017600086B005460E460024A24600BFA1460027CB
:10177000B08900B100BF2F462C8A4CF6FF700440A0
:10178000F08804432C82AC894EF6F3100440B088F4
:1017900031890843718908430443AC81AC8A4FF610
:1017A000FF400440B0890443AC8201A8FFF744FC29
:1017B0001F48874202D1DDF810A001E0DDF80CA03F
:1017C000A88900F4004040B10AEBCA0000EB0A10FF
:1017D00031684900B0FBF1F807E00AEBCA0000EB02
:1017E0000A1031688900B0FBF1F86420B8FBF0F012
:1017F00004012009642101FB1089A88900F400403C
:1018000040B1322000EBC900B0FBF1F000F007005E
:10181000044308E0322000EB09106421B0FBF1F032
:1018200000F00F0004432C8106B0BDE8F0870000F3
:101830000038014001468888C0F308007047C1F3B2
:1018400008028280704700BFFEE700000FB4054B1E
:1018500010B503A9044A029800F000F910BC5DF825
:1018600014FB00007D220008300000200FB4084B5C
:1018700010B504A902AA039800F0F0F8044602A9E2
:10188000002000F06EFC204610BC5DF814FB000048
:101890006321000837B514460846064B6A462146C0
:1018A00000F0DCF804466946002000F05AFC2046AF
:1018B0003EBD00006321000802E008C8121F08C1F5
:1018C000002AFAD170477047002001E001C1121FC1
:1018D000002AFBD1704700002DE9FF5F82B0002194
:1018E000DDE90430020DDDF840B0034318D044F6C2
:1018F0001050A2F2FF3242431514119801281FD054
:10190000A5EB0B00401C5FEA000A4FF000064E4FAB
:10191000DFF83891B046504615D5CAF1000413E0FF
:10192000119801244AA3012801D16FEA0B01029802
:10193000119AC0E90031C0E9024206B0BDE8F09F4B
:10194000CBF10000DFE704460021404A491842EB92
:101950000450CDE9001012E0E00707D032463B46C4
:1019600040464946FEF790FD8046894632463B4652
:1019700010461946FEF788FD06460F466410002CF7
:10198000EAD1DDE90401DDE90023BAF1000F06DA4E
:10199000FEF77AFD42464B46FEF776FD05E0FEF780
:1019A000E5FD42464B46FEF7E1FD04460E460022A9
:1019B000284BFEF763FE03D84FF0FF30014607E0E7
:1019C0000022254B20463146FEF7B7FCFEF73DFED0
:1019D000102409E0002C0ADB0A220023FEF745FC54
:1019E000039B30321A55641E50EA0102F2D1641C86
:1019F000039AC4F111031444119A012A03D001225D
:101A000008430DD10AE0084304D000204FF0110B29
:101A1000119072E7A3EB0B056D1E0DE05B4504DD35
:101A20004FF0000205F1010504E003DA4FF0000277
:101A3000A5F10105002AECD002981199C0E9023104
:101A4000C0E9004579E70000000014400000F03FC5
:101A5000300000000000F0430000E03F2DE9FF4FA0
:101A600095B09A46884606460025EEE1252877D1AE
:101A700000242746F94A0121039400E0044316F8A4
:101A8000013F203B01FA03F01042F7D130782A28B9
:101A900011D06FF02F033078A0F13002092A16D848
:101AA000039A44F0020402EB820203EB4202104468
:101AB000761C0390EFE758F8042B0392002A03DA10
:101AC000504244F40054039044F00204761C3078F1
:101AD0002E2816D116F8010F44F004042A280DD040
:101AE0006FF02F023078A0F13003092B09D807EBF3
:101AF000870302EB4303C718761CF3E758F8047B0F
:101B0000761C30786C280FD006DC4C2817D068285B
:101B10000DD06A2814D104E0742810D07A280FD18F
:101B20000DE044F400140AE044F4801401E044F4AD
:101B300040147278824202D104F58014761C761C1F
:101B4000307866280BD013DC582877D009DC0028C1
:101B500075D04528F6D04628F4D047281AD193E10D
:101B600018E0632835D0642879D0652812D18BE13C
:101B7000702873D008DC6728F1D069286FD06E28F0
:101B80000DD06F2806D1ACE073282CD0752874D006
:101B9000782853D05246179990476D1C54E1C4F3EE
:101BA0000250022809D003280DD0D8F800100428CC
:101BB0000DD00D6008F1040846E1D8F80010EA17CE
:101BC000C1E90052F6E7D8F800100D80F2E70D7079
:101BD000F0E718F8041B8DF8001000208DF80100C4
:101BE000EB46012003E058F804BB4FF0FF306107DB
:101BF0004FF0000102D40DE009F101018946B9421C
:101C00000FDA8145F8DB1BF809100029F4D108E050
:101C100009F1010189468142FADB1BF8091000290C
:101C2000F6D103985346A0EB090721463846179A88
:101C300000F080FA284400EB090507E044E008E1E1
:101C40000DE01BF8010B524617999047B9F10109B5
:101C5000F7D2534621463846179AF2E039E00A2176
:101C6000C4F302524FF0000B0091022A06D058F83C
:101C7000040BC117032A09D00AE023E008F107008A
:101C800020F00702F2E80201904605E000B2C11719
:101C9000042A01D140B2C117002906DA0A46002100
:101CA000404261EB02012D2202E0220504D52B22E5
:101CB0008DF80420012203E0E20701D02022F7E79B
:101CC000914657E00A2100E010214FF0000B0091EF
:101CD0000BE010214FF0000B44F0040408270091A2
:101CE00003E008204FF0000B0090C4F30252022AD8
:101CF00005D058F8040B0021032A08D008E008F1A9
:101D0000070020F00702F2E80201904603E080B2EB
:101D1000042A00D1C0B24FF0000922072AD5327838
:101D2000702A07D0DDF800C08CF0100C5CEA0B0CB8
:101D300005D00EE040228DF80420012208E050EA90
:101D4000010306D030238DF804308DF805200222DF
:101D50009146009B83F0080353EA0B030AD150EA33
:101D6000010201D1620705D530228DF804204FF021
:101D700001097F1E3278582A04D039A20C920CAA8D
:101D800002920BE03BA2F9E75B46009AFEF76DFA80
:101D90000C9B9B5C029A521E0292137050EA010245
:101DA000F2D1029804A9081A00F1200B600702D5AD
:101DB00024F4803400E001275F4502DDA7EB0B002F
:101DC00000E0002000EB0B01009003984944401A0A
:101DD0000390E00306D453462146179A039800F077
:101DE000A9F90544002706E001A85246C05D1799ED
:101DF00090476D1C7F1C4F45F6DBE0030CD5534626
:101E00002146179A039800F095F9054404E0302024
:101E10005246179990476D1C0099481E0090002962
:101E2000F5DC08E00298029952460078491C0291BC
:101E3000179990476D1CBBF10001ABF1010BF1DC70
:101E40005BE100F065F90544761C307800287FF4EA
:101E50000DAE19B02846BDE8F08F0000092801003A
:101E60003031323334353637383961626364656610
:101E700000000000303132333435363738394142D2
:101E80004344454600000000600700D4062708F1DF
:101E9000070020F00700F0E80223804603F0004C22
:101EA0005FEA0C0001D097A009E0200501D596A0BB
:101EB00005E0E00701D095A001E0AFF24C001390DF
:101EC000307823F0004365280CD006DC452809D083
:101ED00046281DD047287FD13BE0662818D06728C8
:101EE0007AD136E00021112F01DB112000E0781CAF
:101EF000CDE9000104A90CA8FFF7EEFCDDE90D0116
:101F00000C9A4FF0000B07F10109109200914EE07E
:101F10004FF000400097CDE9011004A90CA8FFF78D
:101F2000DBFCDDE90D020C9B0F994FF0000B914695
:101F30001093009211B9791C00EB0109B7EB09006D
:101F400003D4C0F1FF3B07F10109A9EB07000190A1
:101F500042E0012F00DA01270021112F01DD1120BD
:101F600000E03846CDE9000104A90CA8FFF7B4FC55
:101F7000DDE90D010C9A00914FF0000BB94610926B
:101F800021070FD4009A4A4503DA914601E0A9F1EE
:101F90000109B9F1010F05DD109AA9F10101515CA8
:101FA0003029F4D0B84202DA10F1040F03DA01212B
:101FB000CDE9011010E0002803DC8344A9EB000107
:101FC00002E0411C494500DD8946A0EB0B00401CA6
:101FD00001904FF000400290200705D40198484539
:101FE00002DB4FF0FF30019000208DF84B0002988B
:101FF0000DF14B07B0F1004F25D002200C902B20A3
:102000000D90029800280CDA404202902D200D908D
:1020100007E00A210298FEF712F93031029007F822
:10202000011D0C99481E0C900029F2DC0298002832
:10203000EFD1791E0D980870307800F0200040F044
:10204000450007F8020D11A8C01BC01D029013988F
:10205000007800B1012000EB0901019801EBE0716B
:10206000029801440398401A401E0390E00306D4EE
:1020700053462146179A039800F05CF805441398DC
:10208000007818B15246179990476D1CE00323D58C
:1020900053462146179A039800F04CF805441BE07C
:1020A000BBF1000F07DB0098584504DD1098179925
:1020B00010F80B0001E01799302052469047019824
:1020C0000BF1010B401E05F10105019004D12E20FA
:1020D0005246179990476D1CB9F10001A9F1010909
:1020E000DEDC05E017F8010B5246179990476D1C8E
:1020F0000299481E02900029F4DC53462146179AA3
:1021000003989EE62D0000002B0000002000000038
:102110002DE9F041044600251E461746880404D4E4
:1021200005E039462020B0476D1C641EF9D52846CD
:10213000BDE8F0812DE9F041044600251E46904699
:10214000C80301D5302700E02027880404D505E026
:1021500041463846B0476D1C641EF9D52846BDE897
:10216000F0810A68531C0B601070704710B56FF057
:102170000400FFF7CBF80A4800680A49B0FBF1F009
:10218000094908700846007800EB4001C1EBC01017
:102190004FF6FF7101EAC0000449088010BD00003D
:1021A0001800002000127A002C0000202E000020D1
:1021B0000146114A12884A434FF0E0235A61002237
:1021C0009A611A46126942F001021A6100BF4FF08B
:1021D000E022106900F001021AB100F48032002AF6
:1021E000F5D04FF0E022126922F001024FF0E02317
:1021F0001A6100229A6170472E0000200146114AA0
:1022000012784A434FF0E0235A6100229A611A463D
:10221000126942F001021A6100BF4FF0E02210691A
:1022200000F001021AB100F48032002AF5D04FF01C
:10223000E022126922F001024FF0E0231A6100222D
:102240009A6170472C00002001B581B000200090F9
:10225000694601AA5078087010784870BDF80000EF
:102260000CBD0146080601F47F4240EA022001F459
:102270007F0240EA122040EA1160704700BF054A21
:10228000128802F04002002AF9D0C2B2014B1B1D95
:102290001A80704700480040024612B102F0070061
:1022A00028B9082901D8002070470120FCE702F076
:1022B0000700C0F10800884201D30020F4E70120A4
:1022C000F2E730B502460B460021002400250AB98A
:1022D000481E30BD002108E0545C581A401E155CB1
:1022E0005554581A401E1454491CB1EB530FF3D3E4
:1022F0000020EEE72DE9F04104460D4600260027B8
:1023000004B135B919A0FFF7A1FA4FF0FF30BDE8CD
:10231000F08100F053F9074628782178884203D0ED
:102320001CA0FFF793FA012668796179884203D0EF
:102330001EA0FFF78BFA0126D5F80100D4F8011092
:1023400088420AD021480068381A41F270718842E8
:1023500003D31FA0FFF77AFA0126012E03D100F064
:102360002DF91A4908603046D1E7000067697A43C1
:102370006865636B5265706F7274204572726F721C
:10238000202C20496C6C6567616C20506172616D16
:102390000A00000076616C75657361795F666C6137
:1023A00067204368616E6765640A000076616C753A
:1023B000656F7665725F7765696768745F666C6183
:1023C00067204368616E6765640A0000640000204E
:1023D00076616C75657765696768745F646174615F
:1023E000204368616E6765640A000000F8B5054621
:1023F0000C4616460DB104B12EB910A0FFF726FA0F
:102400004FF0FF30F8BD287800F0010098B111219D
:102410002278601C81542078401C207001206B1CA5
:10242000024600210090084601F022F908B101207F
:1024300000E0002030700020E4E7000067697A4483
:10244000617461506F696E74324576656E742045B3
:1024500072726F72202C20496C6C6567616C205021
:102460006172616D0A000000F8B505460C4605B1C1
:102470002CB917A0FFF7EAF94FF0FF30F8BD0020A4
:102480002070E07028782346012200210090084641
:1024900001F0AEF868792346012200210090032064
:1024A00001F0A6F801212046FFF70BFF0121E01CF7
:1024B000FFF707FFD5F801200021012001F042F9C4
:1024C00086B23046FFF7C0FEA4F801000020D5E731
:1024D00067697A44617461506F696E7473325265D2
:1024E000706F727444617461204572726F72202C37
:1024F00020496C6C6567616C20506172616D0A00E7
:1025000070B5044600F05AF805461D492046FFF70D
:10251000F1FE012813D11BA0FFF798F918490A39D9
:102520002046FFF7A1FF28B9042215490A391046B1
:1025300000F0F2FF124821680160A18881801748ED
:10254000B5FBF0F100FB1150C8B915480068A8426E
:1025500015D014A0FFF77AF909490A392046FFF788
:1025600083FF28B9042206490A39104600F0D4FF37
:10257000034821680160A18881800948056070BD19
:102580009E0700206368616E6765642C2072657029
:102590006F727420646174610A000000C027090032
:1025A00068000020496E666F3A2036303053207242
:1025B00065706F727420646174610A00014800687C
:1025C000704700005800002010B5164890F84000F1
:1025D000012825D1134890F83F0002281BDAFFF7A5
:1025E000EDFF1049C96D401AC82819D9FFF7E6FF59
:1025F00004460C4890F83F30C26D21460AA0FFF710
:1026000025F900F0A9FE074890F83F00401C054955
:1026100081F83F0004E0212102483F30FDF79DFD95
:1026200010BD0000E80600205761726E696E673ABF
:1026300067697A50726F746F636F6C526573656E01
:1026400064446174612025642025642025640A00A7
:102650003EB50446002524B913A0FFF7F7F8681E1D
:102660003EBD20680090606801909DF80400401C09
:10267000C0B28DF804000520FFF7E6FDADF80200BA
:102680000921684600F0A6FE8DF808000921684679
:1026900001F0F6FD0546002D03DA29460DA0FFF7EF
:1026A000D5F82846DCE700004552523A2067697A9F
:1026B00050726F746F636F6C436F6D6D6F6E4163BB
:1026C0006B206461746120697320656D707479207A
:1026D0000A0000004552523A2075617274207772E8
:1026E000697465206572726F72202564200A00008B
:1026F000FEB504460E46002524B914A0FFF7A6F83F
:10270000681EFEBD684600F0D7F912208DF804005F
:1027100060798DF805000620FFF796FDADF8020000
:102720008DF808600A21684600F054FE8DF8090013
:102730000A21684601F0A4FD0546002D03DA29466A
:102740000DA0FFF783F82846DBE7000067697A50A1
:10275000726F746F636F6C4572726F72436D642039
:102760004572726F72202C20496C6C6567616C2019
:10277000506172616D0A00004552523A20756172D3
:1027800074207772697465206572726F7220256497
:10279000200A000030B59DB0044600252CB92BA0BE
:1027A000FFF754F8681E1DB030BD684600F084F98C
:1027B00002208DF8040060798DF805002FA103C96F
:1027C000CDE9020130A103C9CDE9040131A103C95A
:1027D000CDE9080132A103C9CDE90601202233A1C8
:1027E0000AA8FDF7A1FC202239A10DF15200FDF746
:1027F0009BFC0020CDF84A00CDF84E009DF851001A
:102800008DF851009DF8510040F002018DF85110F3
:102810000020FFF719FDADF848006F20FFF714FD09
:10282000ADF802007321684600F0D4FD8DF8720007
:102830007321684601F024FD0546002D03DA294680
:102840002CA0FFF703F82846ADE7000067697A502F
:10285000726F746F636F6C47657444657669636506
:10286000496E666F204572726F72202C20496C6C25
:102870006567616C20506172616D0A0030303030E4
:102880003030303400000000303030303030303202
:1028900000000000303330333030303000000000B2
:1028A000303330313031303000000000656565393B
:1028B000386335343939623734343334383539662E
:1028C00063336435653131313439616200000000B1
:1028D000623237373463316566393539346435628D
:1028E00062313565643938326532313535363530E7
:1028F000000000004552523A2075617274207772D0
:10290000697465206572726F72202564200A000068
:102910002DE9FE4F80460E4617464FF0000B002073
:10292000029081468246002534460090B8F1000F9F
:1029300001D006B137B950A0FEF788FF4FF0FF3045
:10294000BDE8FE8F404601F0BFFB00F0FF0ABAF180
:10295000000F02D14FF0FF30F2E74FF000095DE0C9
:10296000012201A9404601F0ECFB8346BBF1000FB8
:1029700052D04D480078FF281FD19DF80400FF2851
:102980001BD14A48007848B9FF20207060700220AF
:102990004749088001204549087034E044480088D0
:1029A000042830DD42480088A8422CD0FF20207047
:1029B000607002203E49088025E03B480078FF28EF
:1029C00003D19DF8040055281DD03848007801280F
:1029D00019D19DF8040036490988605434480088AC
:1029E000401C334908800846008804280BDD009409
:1029F000009C6088FFF728FC001D85B22C480088E9
:102A0000A84200D10CE09DF804002749087029482D
:102A10000078401C2749087009F10109D1459FDB66
:102A200000BF23480088042823DD21480088A842ED
:102A30001FD11F480188204600F0CCFC02901C48A2
:102A40000088401E215C029881420FD12A4621460F
:102A50003046FDF769FB3D80002014490870144999
:102A60000880144908701049087069E76FF0010088
:102A700066E7012064E7000067697A50726F746F3F
:102A8000636F6C4765744F6E655061636B6574204E
:102A90004572726F72202C20496C6C6567616C20E6
:102AA000506172616D0A0000700000206C0000200F
:102AB0006E0000207100002010B504462CB907A05C
:102AC000FEF7C4FE4FF0FF3010BD002020606060B4
:102AD000FF20207060700020F6E700004552523A57
:102AE0002067697A50726F746F636F6C48656164B8
:102AF000496E6974206865616420697320656D7032
:102B00007479200A000000002DE9F04F8FB00646CE
:102B10008B461746994600200E9082468046002537
:102B200001ACBBF1000F06D131A0FEF78FFE681E8D
:102B30000FB0BDE8F08FB9F1010F06D196F808800B
:102B400008F10600384485B201E0781D85B22B46B5
:102B5000424639462CA0FEF779FEFF2004F8010B0F
:102B600004F8010B281204F8010B04F8015B30791A
:102B7000401C04F8010B707904F8010B002004F8E4
:102B8000010B04F8019B4FF0080AB9F1010F0DD1B8
:102B900004F8018B0AF1010A01A901EB0A0042467F
:102BA00006F10901FDF7C0FAC244444437B101A956
:102BB00001EB0A003A465946FDF7B6FA291D01A86D
:102BC00000F008FC0146E81C01AA1154291D01A8C7
:102BD00001F056FB0E900E98002806DA14A00E990C
:102BE000FEF734FE6FF00100A2E70020A0E700002E
:102BF0005B4552525D202064617461204973204E10
:102C0000756C6C200A0000006C656E203D20256408
:102C1000202C20734469644C656E203D202564207F
:102C20002C646174615F6C656E203D2025640A0030
:102C300075617274207772697465206572726F7243
:102C4000202564200A0000002DE9F04780460C464C
:102C500017461D46089E94F800900CB105B136B990
:102C60002FA0FEF7F3FD4FF0FF30BDE8F087B8F17D
:102C7000000F53D113213648FDF76FFAB9F1010F58
:102C800006D0B9F1020F11D0B9F1050F44D123E0FC
:102C90002F4A50322E49601CFFF7A8FB01202C4917
:102CA0006039087000250020306036E028494C313A
:102CB00001F10A00FFF7D8FB50B925486038D0F879
:102CC000AC00C5F80100032028700520306002E048
:102CD0004FF0FF30C9E720E07A1E611C1C484638DF
:102CE000FDF722FA781E1A496039C1F83300102125
:102CF0001748603890F8602061308154613890F84E
:102D00006000401C1249603981F86000032008709F
:102D100000250020306000E000BF00BF0020A4E7D5
:102D200067697A50726F746F636F6C4973737565FE
:102D30006450726F63657373204572726F72202CDA
:102D400020496C6C6567616C20506172616D0A008E
:102D50004807002070B5044625462CB90FA0FEF7A1
:102D600075FD4FF0FF3070BD412205F108010F489D
:102D7000FDF7DAF90F210D48C93890F899209A30FB
:102D800081549A3890F89900401C0849C93981F853
:102D90009900052008700020E5E700004E545020FF
:102DA000697320656D707479200A0000B1070020F6
:102DB00010B504462CB9CAA0FEF748FD4FF0FF300D
:102DC00010BD2089FFF740FA2081D1480078C0F378
:102DD0008000217AC1F38001884256D0207AC0F366
:102DE0008000002829D0207A00F0010078B100216D
:102DF000C84890F8732074308154743890F8730088
:102E0000401CC44981F87300C3A0FEF71FFD207A5F
:102E1000C0F34000002838D00121BE4890F873204C
:102E200074308154743890F87300401CB94981F8AB
:102E30007300C1A0FEF70AFD27E0207A00F0010030
:102E400078B10021B34890F87320743081547438FD
:102E500090F87300401CAF4981F87300AEA0FEF7F4
:102E6000F5FC207AC0F3400078B10221A94890F81F
:102E7000732074308154743890F87300401CA54955
:102E800081F87300B3A0FEF7E1FCA1480078C0F31D
:102E9000C000217AC1F3C00188422CD0207AC10839
:102EA0009B48007861F3C30099490870207AC0F309
:102EB000C00080B10321974890F87320743081548A
:102EC000743890F87300401C924981F87300A8A0F0
:102ED000FEF7BCFC0FE004218E4890F8732074309C
:102EE0008154743890F87300401C8A4981F873004B
:102EF000A7A0FEF7ABFC86480078C0F30010217A4B
:102F0000C1F3001188422CD0207A01098048007852
:102F100061F304107E490870207AC0F3001080B17C
:102F200005217C4890F8732074308154743890F8EF
:102F30007300401C774981F873009DA0FEF786FC62
:102F40000FE00621734890F8732074308154743870
:102F500090F87300401C6F4981F873009CA0FEF745
:102F600075FC6B480078C0F34010217AC1F3401122
:102F700088422CD0207A41096548007861F34510D9
:102F800063490870207AC0F3401080B1072161487E
:102F900090F8732074308154743890F87300401C9A
:102FA0005C4981F8730093A0FEF750FC0FE0082104
:102FB000584890F8732074308154743890F8730036
:102FC000401C544981F8730091A0FEF73FFC504823
:102FD0004078C0F3C001607AC0F3C00081422CD0B9
:102FE000607AC1084A48407861F3C3004849487094
:102FF000607AC0F3C00080B10B21464890F873207E
:1030000074308154743890F87300401C414981F841
:10301000730087A0FEF71AFC0FE00C213D4890F8E2
:10302000732074308154743890F87300401C39490F
:1030300081F8730085A0FEF709FC35484078C0F39D
:103040000011607AC0F3001081422CD0607A01092F
:103050002F48407861F304102D494870607AC0F31E
:10306000001080B109212B4890F8732074308154EE
:10307000743890F87300401C264981F873007BA0D7
:10308000FEF7E4FB0FE00A21224890F87320743029
:103090008154743890F87300401C1E4981F8730005
:1030A00079A0FEF7D3FB0D211A4890F873207430F5
:1030B0008154743890F87300401C164981F87300ED
:1030C000607A00F0070081F8BC00084690F8BC1058
:1030D00074A0FEF7BBFB02200E49087000206FE6CB
:1030E00067697A50726F746F636F6C4D6F64756C43
:1030F00065537461747573204572726F72202C2051
:10310000496C6C6567616C20506172616D0A0000EA
:1031100072000020E80600204F6E426F6172646901
:103120006E673A20536F66744150206F7220576566
:1031300062206D6F64650A004F6E426F6172646950
:103140006E673A204169724C696E6B206D6F6465E1
:103150000A0000004F6E426F617264696E673A2028
:1031600053746174696F6E206D6F64650A000000AE
:1031700057694669207374617475733A20696E20CB
:1031800062696E64696E67206D6F64650A00000095
:1031900057694669207374617475733A206F75744A
:1031A0002062696E64696E67206D6F64650A000055
:1031B00057694669207374617475733A20636F6E42
:1031C0006E656374656420726F757465720A0000C1
:1031D00057694669207374617475733A2064697322
:1031E000636F6E6E656374656420726F757465726B
:1031F0000A00000057694669207374617475733A58
:1032000020636F6E6E6563746564206D326D0A00B5
:1032100057694669207374617475733A20646973E1
:10322000636F6E6E6563746564206D326D0A0000B5
:1032300057694669207374617475733A20617070C0
:1032400020636F6E6E6563740A00000057694669FB
:10325000207374617475733A206E6F2061707020F2
:10326000636F6E6E6563740A0000000057694669FB
:10327000207374617475733A20696E207465737479
:10328000206D6F64650A0000576946692073746198
:103290007475733A206F75742074657374206D6F44
:1032A00064650A0052535349206973202564200A3B
:1032B0000000000070B5044625462CB919A0FEF7A1
:1032C000C5FA4FF0FF3070BD1B48A9680160E9687E
:1032D0004160298A0181A97C8172A0F1BD01B1F808
:1032E000BD00FEF7B1FF1449BD39A1F8BD00D1F80A
:1032F000C500FEF7B6FF1049BD39C1F8C5000E2163
:103300000D48BD3890F8862087308154873890F872
:103310008600401C0849BD3981F8860004200870E9
:103320000020D0E74552523A204E54502069732075
:10333000656D707479200A00A507002010B5FFF7AD
:103340003DF9044600BFFFF739F9001BB0F5167FC1
:10335000F9D900F0A1FE10BD10B500240E4890F878
:10336000400000B910BD0DA0FEF770FA0A48B0F891
:103370005A10413000F084FF04460748B0F85A0064
:10338000A04202D00DA0FEF761FAFFF717F902493B
:10339000C86500BFE6E70000E80600205761726ECE
:1033A000696E673A2074696D656F75742C2072655B
:1033B00073656E642064617461200A004552523A5C
:1033C00020726573656E6420646174612065727239
:1033D0006F720A0010B502460024002302B109B939
:1033E000002010BD022303E0D05C2044C4B25B1C6B
:1033F000481E9842F8D82046F3E7000070B504460E
:103400000D462CB90EA0FEF721FA4FF0FF3070BD2B
:1034100021211148FCF7A1FE2A4621460E48801CB6
:10342000FCF782FE0C483F38A0F85A50012180F882
:103430004010FFF7C3F808493F39C8650020E6E7A8
:103440004552523A206461746120697320656D7041
:103450007479200A000000002707002070B5044698
:10346000094D2CB909A0FEF7F1F94FF0FF3070BDFE
:103470002879401C2179884204D121210248801EEC
:10348000FCF76BFE0020F2E7290700204552523A74
:10349000206461746120697320656D707479200AFD
:1034A0000000000070B504460D46002624B90AA0AD
:1034B000FEF7CCF9701E70BD2A4621460E4800F07A
:1034C00091FE0646AE4205D00CA0FEF7BFF94FF0C4
:1034D000FF30F0E73046EEE74552523A2067697A0E
:1034E000507574446174612062756620697320654B
:1034F0006D707479200A0000F20700204552523A9C
:10350000204661696C656420746F2072625772692D
:103510007465200A000000002DE9FF4105460E46B3
:103520001746002436B920A0FEF790F9601E04B0BB
:10353000BDE8F0816846FFF7BFFA05208DF804006A
:10354000234890F83710D0F83700401C204AC2F8C2
:103550003700C8B28DF805008DF808500A20FEF734
:1035600073FEADF802003A4631460DF10900FCF752
:10357000DBFD0E216846FFF72DFF8DF80D000E21B3
:10358000684600F07DFE0446002C06DA214611A0B4
:10359000FEF75CF96FF00100C9E70E216846FFF7FE
:1035A0002DFF2046C3E7000067697A5265706F728D
:1035B0007444617461204572726F72202C20496CD2
:1035C0006C6567616C20506172616D0A00000000DB
:1035D000E80600204552523A2075617274207772D5
:1035E000697465206572726F72202564200A00007C
:1035F0002DE9F04704460D461746089E4FF0000996
:10360000CA46C8461BB94FF0FF30BDE8F0873946BF
:103610002846FEF741FE8046B8F1000F07D1185D3D
:1036200005F0070106FA01F1084318551EE0B8F14C
:10363000010F1BD1F0B205F00701C1F1080140FAFA
:1036400001F905F00700C0F10801FF20084100EA78
:10365000060A601C185C40EA0900611C5854185D99
:1036600005F007010AFA01F1084318550020CCE7DC
:103670002DE9F04F8FB005460C4616469946189F27
:103680004FF0000AD34600200E908046B9F1000F9B
:1036900000D027B94FF0FF300FB0BDE8F08F3A46A9
:1036A000494601A8FCF740FD012F09D9394601A878
:1036B000FEF707FEB0F1FF3F02D14FF0FF30EBE71E
:1036C00031462046FEF7E8FD8246BAF1000F0CD1E4
:1036D00001A8405D04F007010841C6F10802FF217E
:1036E0001141084040EA080821E0BAF1010F1ED15B
:1036F00001A9681C085C04F00701C1F10801711AF6
:10370000C1F10802FF21114100EA010B01A8405D4F
:1037100004F0070108410E9004F00700C0F1080111
:103720000BFA01F040EA08080E9848EA0008404603
:10373000B2E7000002480068401C01490860704779
:103740005800002010B503460020541AB4FBF3F0D3
:1037500010BD00002DE9FF5F06460D4693464FF071
:1037600000082F46A9462C46AA4606B125B94FF0B7
:10377000FF3004B0BDE8F09F4FF000084AE0701C35
:1037800010F8080012283FD2DFE800F01213143EB0
:103790003E151617183E3E3E3E1923321F09387853
:1037A0001F490870084601781EA0FEF74FF82CE06C
:1037B0002BE02AE029E028E027E026E025E099F840
:1037C00000101FA0FEF742F81FE020A0FEF73EF811
:1037D0001BE0A17962792379A068CDE90032CDE9B7
:1037E0000210E378A27821881DA0FEF72FF80CE0E4
:1037F00026A0FEF72BF82AA0FEF728F89AF800106A
:103800002BA0FEF723F800E000BF00BF08F1010085
:1038100000F0FF0830784045B1DC0020A9E7000047
:103820005C0000204576743A204556454E545F733F
:1038300061795F666C6167202564200A00000000E2
:10384000525353492025640A000000005452414E4F
:1038500053504152454E545F44415441200A0000A8
:10386000574946495F4E5450203A205B25642D2528
:10387000642D256420253032643A253032643A259F
:103880003032645D5B25645D200A00004D4F445575
:103890004C4520494E464F202E2E2E0A0000000097
:1038A000574946204D4F44554C45202E2E2E0A0098
:1038B0006D6F64756C6554797065203A205B256482
:1038C0005D200A002DE9F04190B005460026002059
:1038D0000290019000248046002735B981A0FDF7B1
:1038E000B5FF601E10B0BDE8F081FEF76DFE02AAC4
:1038F00086498748FFF70CF80646002E71D185A04F
:10390000FDF7A4FF814C20790F284FD00ADC0E2848
:1039100073D2DFE800F07216721A72724338727254
:103920004472453C182852D006DC112847D0142890
:1039300046D0162861D134E0222854D02A285CD100
:1039400030E02046FEF726FF5FE0E279A17976A01D
:10395000FDF77CFF01A8009007F10900BDF80830D1
:103960001A1A6A480830C11903AB4046FFF76CF9D0
:1039700040B9E37903A92046019AFFF7C5F86EA084
:10398000FDF764FF41E02046FEF762FE3DE0204681
:10399000FEF75EFE2046FFF70BFA36E000BF00BFE1
:1039A00000BF00BF2046FFF759FD2EE02046FEF77E
:1039B0004FFE64A0FDF74AFFFFF7C0FC25E024E0BE
:1039C0002046FFF74BFD64A0FDF740FF1DE02046B9
:1039D000FFF744FD2046FFF76DFC67A0FDF736FFBB
:1039E00013E013E009E02046FFF738FD2046FFF71B
:1039F000B1F967A0FDF72AFF07E002212046FEF794
:103A000077FE6AA0FDF722FF00BF0DE016F1020F5E
:103A10000AD13E4C01212046FEF76AFE69A0FDF75F
:103A200015FF6FF001005DE73848401E007806285A
:103A300050D2DFE800F04F0313232F3F002033491B
:103A4000491E08700622B031A1F15000FFF782FE36
:103A500013212E485F30FCF780FB3CE000202B490F
:103A6000491E08700122BC31A1F14900FFF772FE26
:103A7000132126487230FCF770FB2CE0002023490C
:103A8000491E08700846D0F833201A316030FFF71D
:103A900061FE20E000201D49491E08700C22BD3146
:103AA000A1F13700FFF756FE132118488530FCF7C7
:103AB00054FB10E000201549491E08704122C9310D
:103AC000A1F13000FFF746FE412110489830FCF785
:103AD00044FB00E000BF00BF2846FEF711FD0020B8
:103AE00000E7000047697A7769747348616E646C17
:103AF00065204572726F72202C20496C6C6567617D
:103B00006C20506172616D0A00000000E90600201F
:103B1000F2070020476574204F6E65205061636B8B
:103B20006574210A00000000666C6167202578201A
:103B30002578200A0000000041636B446174612015
:103B40003A200A007265706F72743A4D43552072C4
:103B500065626F6F74210A0041636B2050524F44BD
:103B6000554354494F4E5F4D4F4445207375636331
:103B7000657373200A00000041636B204745545F62
:103B80005554542073756363657373200A000000F5
:103B900041636B204745545F4D6F64756C652073BE
:103BA000756363657373200A000000004552523A42
:103BB00020636D6420636F6465206572726F72218B
:103BC0000A0000004552523A20636865636B207317
:103BD000756D206572726F72210A000010B5322077
:103BE0000A4908600A48C860084600F09FFA18B9F8
:103BF00008A0FDF72BFE02E00BA0FDF727FE4FF417
:103C000085710E48FCF7A9FA10BD0000F2070020EC
:103C10000208002072624372656174652053756307
:103C200063657373200A0000726243726561746594
:103C3000204661696C64200A00000000E80600204C
:103C400030B587B005460024062D7CD2DFE805F0AC
:103C500003305F90BDEA01A8FEF72EFF0B208DF820
:103C600008008B4890F83710D0F83700401C884A7D
:103C7000C2F83700C8B28DF809000520FEF7E4FA53
:103C8000ADF80600092101A8FFF7A4FB8DF80C0090
:103C9000092101A800F0F4FA0446002C03DA2146B9
:103CA0007CA0FDF7D3FD092101A8FFF7A7FBEAE0FF
:103CB00004A8FEF701FF09208DF81400744890F85D
:103CC0003710D0F83700401C714AC2F83700C8B22C
:103CD0008DF815008DF818500620FEF7B5FAADF8EE
:103CE00012000A2104A8FFF775FB8DF819000A21BC
:103CF00004A800F0C5FA0446002C03DA214665A0AA
:103D0000FDF7A4FD0A2104A8FFF778FBBBE004A897
:103D1000FEF7D2FE09208DF814005D4890F83710A8
:103D2000D0F83700401C5A4AC2F83700C8B28DF8A4
:103D300015008DF818500620FEF786FAADF812002F
:103D40000A2104A800E09AE0FFF744FB8DF819006F
:103D50000A2104A800F094FA0446002C03DA214654
:103D60004CA0FDF773FD0A2104A8FFF747FB8AE08A
:103D700001A8FEF7A1FE13208DF80800444890F832
:103D80003710D0F83700401C414AC2F83700C8B29B
:103D90008DF809000520FEF757FAADF80600092155
:103DA00001A8FFF717FB8DF80C00092101A800F00E
:103DB00067FA0446002C03DA214636A0FDF746FDDB
:103DC000092101A8FFF71AFB5DE001A8FEF774FEC8
:103DD00015208DF808002E4890F83710D0F83700DD
:103DE000401C2B4AC2F83700C8B28DF809000520E4
:103DF000FEF72AFAADF80600092101A8FFF7EAFA52
:103E00008DF80C00092101A800F03AFA0446002CB4
:103E100003DA21461FA0FDF719FD092101A8FFF7CC
:103E2000EDFA30E001A8FEF747FE29208DF80800E2
:103E3000174890F83710D0F83700401C144AC2F8E1
:103E40003700C8B28DF809000520FEF7FDF9ADF87E
:103E50000600092101A8FFF7BDFA8DF80C00092121
:103E600001A800F00DFA0446002C03DA214609A04F
:103E7000FDF7ECFC092101A8FFF7C0FA03E00CA054
:103E8000FDF7E4FC00BF00BF204607B030BD0000D6
:103E9000E80600204552523A20756172742077720C
:103EA000697465206572726F72202564200A0000B3
:103EB0004552523A204366674D6F646520657272C1
:103EC0006F72210A000000001CB54FF4A060FCF7DF
:103ED00047FEFEF74BF94FF41650FDF757FBFCF782
:103EE000DFFDFCF715FDFCF799FE0120102352A21F
:103EF000002100900846FDF73DF8FCF723FF40F253
:103F0000E7314720FDF758FA4D48002101608180D4
:103F10004FF4165000F0E0F9FFF760FEFFF75EFE89
:103F20004FF4FA70FEF744F90120FFF789FE4FF4D1
:103F30007A70FEF73DF943A0FDF7EAF841F28830C8
:103F4000FEF736F941F28830FEF732F941F2883057
:103F5000FEF72EF941A0FDF7DBF841F28830FEF7BD
:103F600027F941F28830FEF723F940A0FDF7D0F899
:103F700041F28830FEF71CF95DE0FCF7DDFC00281B
:103F800018DDFCF7D9FC3C4908600120102104230E
:103F9000CDE900103848002102685020FCF7A4FF4A
:103FA000FCF7D0FE01203549086035480068401C08
:103FB000334908603248006814280CD13148006841
:103FC000012808D12C4801682FA0FDF7A1F84FF473
:103FD0007A60FEF7EDF82848006841F2883188429F
:103FE00006D32BA0FDF794F840F6B830FEF7E0F8C2
:103FF000FCF7A2FCD0B900201F4908600120102363
:104000000DA2002100900846FCF7B4FF012010210A
:104010000423CDE900101848002102685020FCF765
:1040200063FFFCF78FFE00201549086000F0A6F939
:104030000348FFF747FCA0E77765696768743A00B3
:104040005C000020CED2CAC7D5C5C8D9D6DEB5C45B
:10405000B1CFD2B5C9E8BCC600000000D6C7C4DCE9
:10406000D3EFD2F4B5E7D7D3B3D30000BBB6D3AD0B
:10407000CAB9D3C3000000001400002008000020CB
:1040800010000020040000202564BFCB00000000C9
:10409000B3ACD6D800000000012080F3138800BF25
:1040A00000BF0748006800F4E06006490843001DAF
:1040B00003490860BFF34F8F00BF00BFFEE7000059
:1040C0000CED00E00000FA0500B5024612B94FF011
:1040D000FF3000BD50689168884201D10020F8E7A8
:1040E00050689168884203D290685168401AF0E79E
:1040F000104600F014F851689368C91A401AE8E7AE
:1041000030B5044614B94FF0FF3030BD204600F002
:1041100006F805462046FFF7D7FF281AF5E70146BF
:1041200011B94FF0FF3070470868FCE7014611B93C
:104130004FF0FF307047C8684860C868886000204A
:10414000F8E72DE9F04104460F461646002514B95C
:10415000681EBDE8F08117B94FF0FF30F9E76068DD
:10416000A168884214D22046FFF7AEFFB04201D9C1
:10417000304602E02046FFF7A7FF054661682A4661
:104180003846FBF7D1FF6068284460602846E0E7C6
:104190002046FFF7C4FF6168E268891A401AB042FE
:1041A0000AD9354661682A463846FBF7BDFF606884
:1041B000284460602846CCE72046FFF7B0FF6168DE
:1041C000E268891A451A61682A463846FBF7ACFF4F
:1041D000E0686060721B79192046FFF7B2FF054462
:1041E0002846B6E72DE9F04104460F46154600265D
:1041F00004B11FB94FF0FF30BDE8F0812046FFF752
:104200007FFFA84202D86FF00100F5E76068A1685F
:1042100088422AD82046FFF782FFA168E268891AFF
:10422000461AB54213D8A0682A463946FBF77CFFE8
:10423000A0682844A0602046FFF771FFE1680844A9
:10424000A168884201D1E068A0602846D4E7A06850
:1042500032463946FBF768FFE068A060AA1BB9192F
:104260002046FFF7BFFF3044C6E7A0682A4639461C
:10427000FBF75AFFA0682844A0602846BCE700006E
:1042800070B505460E4600240DB9601E70BD0024B1
:104290001BE0295D0F48FDF7D2FA00BF80210D48D1
:1042A000FDF700FA0028F9D0022C0DD3285DFF2875
:1042B0000AD155210748FDF7C2FA00BF8021054801
:1042C000FDF7F0F90028F9D0641CB442E1D3304680
:1042D000DCE700000044004010B586B00446012130
:1042E0000420FCF799FE01214804FCF785FE042018
:1042F000ADF8140003208DF8160018208DF8170073
:1043000005A91C48FCF775FA0820ADF81400042034
:104310008DF8170005A91748FCF76BFA26208DF8D1
:10432000000003208DF8010002208DF8020001201A
:104330008DF803006846FCF7DBFB01940020ADF824
:104340000800ADF80A00ADF80C00ADF810000C2024
:10435000ADF80E0001A90848FDF700FA012240F26D
:1043600025510548FDF7D5F901210348FDF78EF9E0
:1043700006B010BD00080140004400400848006835
:104380000849C1F801000848006808B1012000E0B0
:1043900000200449487108460078044908607047C5
:1043A000140000205C0000200C000020040000200D
:1043B0000000000000000000002F000000000700C7
:1043C000070000147F147F1400242A7F2A12006241
:1043D00064081323003649552250000005030000ED
:1043E00000001C224100000041221C000014083E75
:1043F00008140008083E0808000000A0600000083B
:10440000080808080000606000000020100804028E
:10441000003E5149453E0000427F4000004261514C
:104420004946002141454B31001814127F100027E6
:1044300045454539003C4A494930000171090503A9
:1044400000364949493600064949291E00003636DA
:10445000000000005636000000081422410000143D
:10446000141414140000412214080002015109061A
:1044700000324959513E007C1211127C007F49499B
:104480004936003E41414122007F4141221C007FCC
:1044900049494941007F09090901003E4149497ADA
:1044A000007F0808087F0000417F41000020404154
:1044B0003F01007F08142241007F40404040007FC0
:1044C000020C027F007F0408107F003E4141413E04
:1044D000007F09090906003E4151215E007F09194C
:1044E00029460046494949310001017F0101003F49
:1044F0004040403F001F2040201F003F4038403FC9
:10450000006314081463000708700807006151492C
:10451000454300007F41410000552A552A550000BF
:1045200041417F000004020102040040404040403D
:10453000000001020400002054545478007F4844D5
:10454000443800384444442000384444487F00380C
:104550005454541800087E0901020018A4A4A47C35
:10456000007F080404780000447D400000408084FF
:104570007D00007F102844000000417F4000007C47
:1045800004180478007C0804047800384444443853
:1045900000FC242424180018242418FC007C08049F
:1045A000040800485454542000043F444020003C78
:1045B0004040207C001C2040201C003C4030403CFF
:1045C000004428102844001CA0A0A07C004464548F
:1045D0004C441414141414140000000000000000D3
:1045E000000000000000FC000000000002000000CD
:1045F000000C020C020000000000000090D0BCD0B3
:10460000BC900003000300001824FE448C00030249
:10461000070201001824D8B04C80000300010201F9
:10462000C038E438E000010202010202080600007E
:104630000000000000000000000000F8040200007C
:1046400000010204000204F800000004020100005E
:104650009060F86090000000010000002020FC2025
:10466000200000000100000000000000000008061B
:10467000000000002020202020000000000000009A
:104680000000000000000002000000000080601C2C
:104690000200040300000000F8040404F800010212
:1046A000020201000008FC000000000203020000FA
:1046B000188444241800030202020200080424247F
:1046C000D80001020202010040B088FC8000000016
:1046D000000302003C242424C40001020202010061
:1046E000F824242CC0000102020201000C04E41C86
:1046F0000400000003000000D8242424D800010294
:104700000202010038444444F800000302020100A0
:104710000000100000000000020000000000200067
:104720000000000006000000002050880402000085
:1047300000000102909090909000000000000000A6
:104740000002048850200002010000001804C42464
:104750001800000002000000F804E494F8000102D0
:104760000202020000E09CF080000203000003024D
:1047700004FC2424D800020302020100F80404040B
:104780000C0001020202010004FC0404F800020310
:104790000202010004FC24740C0002030202030064
:1047A00004FC24740C00020302000000F00804441E
:1047B000CC4000010202010004FC2020FC040203A2
:1047C000000003020404FC040400020203020200CD
:1047D000000404FC040406040403000004FC24D0C8
:1047E0000C0402030200030204FC040000000203A4
:1047F00002020203FC3CC03CFC0003000300030077
:1048000004FC30C4FC04020302000300F8040404A6
:10481000F80001020202010004FC24241800020333
:1048200002000000F8848404F80001020207050079
:1048300004FC2464980002030200030218242444A8
:104840008C000302020201000C04FC040C000002B4
:104850000302000004FC0000FC040001020201004D
:10486000047C80E01C040000030000001CE03CE02D
:104870001C00000300030000049C609C0400020371
:1048800000030200041CE01C0400000203020000FC
:104890000C84641C04000203020203000000FE02F8
:1048A0000200000007040400000E30C000000000F9
:1048B00000010200000202FE0000000404070000E4
:1048C00000040204000000000000000000000000DE
:1048D00000000808080808080000020000000000A6
:1048E000000000000040A0A0C0000001020203027E
:1048F00004FC2020C00000030202010000C02020B0
:10490000600000010202020000C02024FC0000013F
:104910000202030200C0A0A0C000000102020200C7
:104920000020F82424040002030202000040A0A09A
:10493000602000070A0A0A0404FC2020C0000203C9
:10494000020003020020E400000000020302000055
:10495000000020E4000008080807000004FC80E0D4
:1049600020200203020003020404FC0000000202F3
:1049700003020200E020E020C00003000300030067
:1049800020E02020C00002030200030200C020201B
:10499000C00000010202010020E02020C000080F3A
:1049A0000A02010000C02020E0000001020A0F08F6
:1049B00020E0402020000203020000000060A0A0D0
:1049C00020000002020203000020F8200000000086
:1049D0000102020020E00020E000000102020302C8
:1049E00020E0208060200000030100006080E08063
:1049F00060000003000300002060806020000203CC
:104A00000003020020E02080602008080701000069
:104A10000020A0602000000203020200000020DE4F
:104A20000200000000070400000000FF000000007A
:104A3000000F00000002DE2000000004070000005C
:104A40000201020404020000000000000000000057
:104A5000000000000000000000000000000000F85E
:104A600000000000000000333000000000100C06C1
:104A7000100C0600000000000000000040C078405C
:104A8000C0784000043F04043F040400007088FC28
:104A900008300000001820FF211E0000F008F00080
:104AA000E018000000211C031E211E0000F00888F1
:104AB000700000001E2123241927211010160E005B
:104AC000000000000000000000000000000000E006
:104AD000180402000000000718204000000204181B
:104AE000E00000000040201807000000404080F077
:104AF000804040000202010F01020200000000F0AD
:104B0000000000000101011F010101000000000080
:104B10000000000080B070000000000000000000F5
:104B2000000000000001010101010101000000007E
:104B30000000000000303000000000000000000015
:104B400080601804006018060100000000E01008F2
:104B50000810E000000F102020100F00001010F8C7
:104B6000000000000020203F202000000070080806
:104B70000888700000302824222130000030088886
:104B8000884830000018202020110E000000C020AE
:104B900010F8000000070424243F240000F80888CF
:104BA000880808000019212020110E0000E010885C
:104BB00088180000000F112020110E00003808088E
:104BC000C83808000000003F00000000007088089E
:104BD00008887000001C222121221C0000E010081F
:104BE0000810E0000000312222110F00000000C078
:104BF000C000000000000030300000000000008015
:104C00000000000000008060000000000000804004
:104C1000201008000001020408102000404040401D
:104C20004040400004040404040404000008102070
:104C300040800000002010080402010000704808B5
:104C40000808F0000000003036010000C030C8281D
:104C5000E810E0000718272423140B000000C038D8
:104C6000E0000000203C23020227382008F8888852
:104C700088700000203F202020110E00C03008085E
:104C800008083800071820202010080008F8080835
:104C90000810E000203F202020100F0008F888882E
:104CA000E8081000203F20202320180008F88888FA
:104CB000E8081000203F200003000000C030080872
:104CC0000838000007182020221E020008F80800FB
:104CD0000008F808203F210101213F20000808F8C2
:104CE000080800000020203F2020000000000808E5
:104CF000F8080800C08080807F00000008F888C0A5
:104D000028180800203F20012638200008F8080055
:104D100000000000203F20202020300008F8F8008C
:104D2000F8F80800203F003F003F200008F830C09E
:104D30000008F808203F200007183F00E01008088E
:104D40000810E0000F10202020100F0008F80808BD
:104D50000808F000203F210101010000E0100808D0
:104D60000810E0000F18242438504F0008F88888F5
:104D700088887000203F2000030C302000708808D5
:104D8000080838000038202121221C00180808F8E3
:104D9000080818000000203F2000000008F8080064
:104DA0000008F808001F202020201F000878880035
:104DB00000C83808000007380E010000F80800F8A5
:104DC0000008F800033C0700073C0300081868804F
:104DD0008068180820302C03032C30200838C800C5
:104DE000C83808000000203F200000001008080814
:104DF000C83808002038262120201800000000FEB6
:104E0000020202000000007F40404000000C30C061
:104E100000000000000000010638C000000202028D
:104E2000FE000000004040407F000000000004023F
:104E3000020204000000000000000000000000006A
:104E4000000000008080808080808080000202045A
:104E50000000000000000000000000000000808052
:104E6000808000000019242222223F2008F80080C0
:104E700080000000003F112020110E000000008083
:104E800080800000000E1120202011000000008012
:104E90008088F800000E112020103F200000808044
:104EA00080800000001F222222221300008080F058
:104EB000888888180020203F202000000000808083
:104EC00080808000006B94949493600008F80080C8
:104ED00080800000203F210000203F200080989823
:104EE000000000000020203F202000000000008083
:104EF0009898000000C08080807F000008F80000C3
:104F000080808000203F24022D302000000808F817
:104F1000000000000020203F2020000080808080D2
:104F200080808000203F20003F20003F8080008064
:104F300080800000203F210000203F200000808072
:104F400080800000001F202020201F008080008023
:104F50008000000080FFA12020110E0000000080D2
:104F600080808000000E112020A0FF8080808000C3
:104F70008080800020203F212000010000008080F0
:104F8000808080000033242424241900008080E0E5
:104F9000808000000000001F2020000080800000B2
:104FA00000808000001F202020103F208080800093
:104FB0000080808000010E300806010080800080A3
:104FC000008080800F300C030C300F0000808000C8
:104FD000808080000020312E0E31200080808000F3
:104FE0000080808080818E701806010000808080A3
:104FF000808080000021302C222130000000000041
:10500000807C020200000000003F404000000000E1
:10501000FF00000000000000FF0000000002027C12
:10502000800000000040403F000000000006010139
:105030000202040400000000000000000000000064
:105040000000000000000000000000000000000060
:105050000000000000000000000000000000000050
:105060000000000000F0F0F0000000000000000070
:1050700000017F010000000000000000001C1C1C5B
:105080000000000000008060301C8C60301C0C00B0
:105090000000000000000000000000000000000010
:1050A0000000000000000000000000E00000000020
:1050B00000E000000086E69F86868686E69F8600E2
:1050C00000011F01010101011F010100000080C05A
:1050D0006020F820E0C00000000003070C18FF70FB
:1050E000E18100000000070F10107F100F07000083
:1050F0008060206080000000E02000000F30203041
:105100009F70DC371030C0000000100E030007183D
:10511000101807000000C02020E0C00000000000C0
:1051200080E01F38E88703C43C040000070F181014
:10513000100B070D1010080000808C4C3800000088
:10514000000000000000000000000000000000005F
:10515000000000000000000000000000000000004F
:10516000000080E0300804000000000000FEFF01A5
:1051700000000000000000000000030F18204000A5
:1051800000040830E0800000000000000000000083
:1051900001FFFE0000000000004020180F03000087
:1051A00000000000000000000000C000000000003F
:1051B000004266663C18FF183C666642000000002C
:1051C000000003000000000000000000000080005C
:1051D00000000000001010101010FF101010101030
:1051E00000000000000003000000000000000000BC
:1051F00000000000000000000000000000000000AF
:105200000000000000808C4C38000000000000000E
:10521000000000000000000000000000001010105E
:10522000101010101010100000000000000000000E
:10523000000000000000000000000000000000006E
:1052400000000000000000000000000000001C1C26
:105250001C00000000000000000000000000000032
:10526000E0380C000000000080701C03000000000B
:105270000060380E0100000000000000000080C047
:1052800060202060C080000000FEFF0100000000E0
:1052900001FFFE000001070E181010180E07010094
:1052A0000000808080C0E0000000000000000000DE
:1052B00000FFFF000000000000001010101F1F1072
:1052C000101000000080402020202060C0800000DE
:1052D00000030300804020381F070000001C1A193B
:1052E00018181818181F00000080C020202060C067
:1052F00080000000000303001010182FE78000005A
:1053000000070F10101010180F0700000000000019
:105310000000C0E0F000000000C0B088868180FF7F
:10532000FF808000000000000010101F1F10100000
:105330000000E060606060606060000000003F109E
:1053400008080818F0E0000000070B101010101CEF
:105350000F030000000080C040202020E0C00000BB
:1053600000FCFF211008080818F0E0000001070CFD
:1053700018101010080F03000000C0E060606060AB
:1053800060E06000000003000000E018070000007B
:1053900000000000001F1F00000000000080C0602F
:1053A0002020202060C080000087EF2C18183030AB
:1053B00068CF830000070F0810101010180F0700A7
:1053C0000000C0C020202020C0800000001F3F60DF
:1053D0004040402010FFFE0000000C1C1010100880
:1053E0000F030000000000000000000000000000AB
:1053F00000000000000E0E0E000000000000000083
:10540000001C1C1C00000000000000000000000048
:105410000000000000000000000C0C000000000074
:1054200000000000005838000000000000000000EC
:10543000000000804020100000001028448201007D
:10544000000000000000000000000102040810003D
:1054500000000000000000000000000000848484C0
:1054600084848484848484000000000000000000A0
:10547000000000000000102040800000000000003C
:105480000000000000000182442810000000100805
:10549000040201000000000000C0202010101010C5
:1054A00030E0C0000003030000F010080C07030008
:1054B000000000001C1C1C0000000000000000C0D8
:1054C000406020202040C00000FCFF01F00E03C11E
:1054D000FE03807F0001070E08111110110904025C
:1054E0000000000080E0E000000000000000807C80
:1054F0004340477FF880000010181F100000000094
:10550000131F1C1020E0E02020202060C08000003D
:1055100000FFFF10101010182FE78000101F1F1041
:1055200010101010180F0700000080C0402020202D
:105530002060E00000FCFF0100000000000001000E
:105540000001070E181010100804030020E0E020EE
:1055500020202040C080000000FFFF00000000006D
:1055600001FFFE00101F1F10101018080E07010089
:1055700020E0E020202020202060800000FFFF109D
:105580001010107C00000000101F1F1010101010D1
:105590001018060020E0E02020202020606080001D
:1055A00000FFFF101010107C00000100101F1F10E2
:1055B0000000000000000000000080C060202020EB
:1055C00040E0000000FCFF0100004040C0C140403E
:1055D0000001070E181010100F0F000020E0E0204F
:1055E0000000000020E0E02000FFFF10101010106D
:1055F00010FFFF00101F1F1000000000101F1F10E1
:105600000000202020E0E02020200000000000001A
:1056100000FFFF000000000000001010101F1F100E
:105620001010000000000000202020E0E0202020DA
:1056300000000000000000FFFF0000000060E080AC
:105640008080C07F3F00000020E0E020000020A01C
:105650006020200000FFFF30187CE3C00000000045
:10566000101F1F10000001131F1C181020E0E02065
:10567000000000000000000000FFFF00000000002C
:1056800000000000101F1F1010101010101806004E
:1056900020E0E0E000000000E0E0E02000FF013F4B
:1056A000FEC0E01E01FFFF00101F1000031F0300DB
:1056B000101F1F1020E0E0C0000000000020E020CC
:1056C00000FF0003071C78E08000FF00101F10009F
:1056D00000000000030F1F00000080C06020206059
:1056E000C080000000FEFF010000000000FFFE007F
:1056F0000001070E181010180C07010020E0E02030
:105700002020202060C0800000FFFF2020202020DB
:10571000301F0F00101F1F100000000000000000CD
:10572000000080C060202060C080000000FEFF01FB
:105730000000000000FFFE000001070E1111133CE5
:105740007C67210020E0E0202020202060C0800035
:1057500000FFFF101030F0D0080F0700101F1F10BF
:10576000000000030F1C10100080C06020202020CB
:105770004040E00000070F0C1818303060E0810056
:10578000001F0C0810101010180F07008060202058
:1057900020E0E020202060800100000000FFFF00EA
:1057A0000000000100000000101F1F10000000009A
:1057B00020E0E020000000000020E02000FFFF00CB
:1057C000000000000000FF0000070F18101010106C
:1057D000100807002060E0E02000000020E06020CA
:1057E0000000077FF88000807C03000000000000BC
:1057F000071F1C070000000020E0E02000E0E02080
:105800000020E0200007FFF8E01FFFFCE01F000081
:105810000000031F0300011F03000000002060E0E0
:10582000A0000020E0602000000000038F7CF8C68C
:10583000010000000010181E130001171F181000AF
:105840002060E0E02000000020E060200000010770
:105850003EF8E0180700000000000010101F1F10A5
:105860001000000000806020202020A0E0E0200048
:1058700000000000C0F03E0F0300000000101C1FDD
:1058800017101010101806000000000000FC04049F
:10589000040404000000000000FF000000000000FD
:1058A00000000000007F404040404000000010E049
:1058B000000000000000000000000000031C6080E9
:1058C0000000000000000000000000030C708000D9
:1058D00000000404040404FC0000000000000000B8
:1058E000000000FF00000000000040404040407FFA
:1058F0000000000000000010080C040C081000005C
:105900000000000000000000000000000000000097
:105910000000000000000000000000000000000087
:105920000000000000000000000000000000000077
:105930008080808080808080808080800000000463
:105940000408080000000000000000000000000043
:105950000000000000000000000000000000000047
:10596000000000000000000000000000000098D8C7
:1059700044642424FCF80000000F1F1810101008C5
:105980001F1F10180020E0F00000000000000000C1
:105990000000FFFF180804040CF8F00000001F0FBF
:1059A00018101010180F0300000000000000000085
:1059B0000000000000E0F8180404043C3800000077
:1059C00000030F0C1010101008060000000000006B
:1059D00000000020E0F0000000E0F81C04040408CF
:1059E000FFFF000000030F18101010081F0F080021
:1059F0000000000000000000000000000000E0F8CF
:105A0000484444444C7870000000030F0C181010F8
:105A1000100804000000000080C0602020E0C000EA
:105A200000040404FFFF040404040000000010103C
:105A30001F1F1010100000000000000000000000F8
:105A400000000000000070F88C04048CF874040C52
:105A5000007076CF8D8D8D89C87870000020E0F0C1
:105A600000000000000000000000FFFF0804040424
:105A7000FCF8000000101F1F100000101F1F100076
:105A8000000000000060600000000000000004044E
:105A900004FCFC000000000000001010101F1F108C
:105AA0001010000000000000000000606000000016
:105AB00000000000040404FCFC0000000000C0C062
:105AC0008080C07F3F0000000020E0F00000000068
:105AD000000000000000FFFF80C0F41C0404000070
